{
  "contractName": "OrganDonation",
  "abi": [
    {
      "anonymous": false,
      "inputs": [
        {
          "indexed": false,
          "internalType": "address",
          "name": "donor",
          "type": "address"
        },
        {
          "indexed": false,
          "internalType": "enum OrganDonation.BloodType",
          "name": "bloodType",
          "type": "uint8"
        },
        {
          "indexed": false,
          "internalType": "enum OrganDonation.Organ",
          "name": "organ",
          "type": "uint8"
        }
      ],
      "name": "LogDonor",
      "type": "event"
    },
    {
      "anonymous": false,
      "inputs": [
        {
          "components": [
            {
              "internalType": "address",
              "name": "donor",
              "type": "address"
            },
            {
              "internalType": "address",
              "name": "patient",
              "type": "address"
            }
          ],
          "indexed": false,
          "internalType": "struct OrganDonation.MatchedPair[]",
          "name": "pairs",
          "type": "tuple[]"
        }
      ],
      "name": "LogPairs",
      "type": "event"
    },
    {
      "anonymous": false,
      "inputs": [
        {
          "indexed": false,
          "internalType": "address",
          "name": "donor",
          "type": "address"
        },
        {
          "indexed": false,
          "internalType": "address",
          "name": "patient",
          "type": "address"
        }
      ],
      "name": "completeMatch",
      "type": "event"
    },
    {
      "constant": true,
      "inputs": [
        {
          "internalType": "address",
          "name": "",
          "type": "address"
        }
      ],
      "name": "donors",
      "outputs": [
        {
          "internalType": "bytes32",
          "name": "name",
          "type": "bytes32"
        },
        {
          "internalType": "uint256",
          "name": "organ",
          "type": "uint256"
        },
        {
          "internalType": "uint256",
          "name": "blood_type",
          "type": "uint256"
        },
        {
          "internalType": "uint256",
          "name": "weight",
          "type": "uint256"
        }
      ],
      "payable": false,
      "stateMutability": "view",
      "type": "function"
    },
    {
      "constant": true,
      "inputs": [
        {
          "internalType": "uint256",
          "name": "",
          "type": "uint256"
        }
      ],
      "name": "pairs",
      "outputs": [
        {
          "internalType": "address",
          "name": "donor",
          "type": "address"
        },
        {
          "internalType": "address",
          "name": "patient",
          "type": "address"
        }
      ],
      "payable": false,
      "stateMutability": "view",
      "type": "function"
    },
    {
      "constant": true,
      "inputs": [
        {
          "internalType": "address",
          "name": "",
          "type": "address"
        }
      ],
      "name": "patients",
      "outputs": [
        {
          "internalType": "uint256",
          "name": "weight",
          "type": "uint256"
        },
        {
          "internalType": "address",
          "name": "identity",
          "type": "address"
        }
      ],
      "payable": false,
      "stateMutability": "view",
      "type": "function"
    },
    {
      "constant": false,
      "inputs": [
        {
          "internalType": "uint256",
          "name": "x",
          "type": "uint256"
        }
      ],
      "name": "set",
      "outputs": [],
      "payable": false,
      "stateMutability": "nonpayable",
      "type": "function"
    },
    {
      "constant": false,
      "inputs": [],
      "name": "get",
      "outputs": [
        {
          "internalType": "uint256",
          "name": "",
          "type": "uint256"
        }
      ],
      "payable": false,
      "stateMutability": "nonpayable",
      "type": "function"
    },
    {
      "constant": false,
      "inputs": [
        {
          "internalType": "address",
          "name": "donor",
          "type": "address"
        },
        {
          "internalType": "address",
          "name": "patient",
          "type": "address"
        }
      ],
      "name": "matchPairs",
      "outputs": [],
      "payable": false,
      "stateMutability": "nonpayable",
      "type": "function"
    },
    {
      "constant": true,
      "inputs": [],
      "name": "viewPairs",
      "outputs": [
        {
          "components": [
            {
              "internalType": "address",
              "name": "donor",
              "type": "address"
            },
            {
              "internalType": "address",
              "name": "patient",
              "type": "address"
            }
          ],
          "internalType": "struct OrganDonation.MatchedPair[]",
          "name": "currentPairs",
          "type": "tuple[]"
        }
      ],
      "payable": false,
      "stateMutability": "view",
      "type": "function"
    },
    {
      "constant": false,
      "inputs": [
        {
          "internalType": "address",
          "name": "donor",
          "type": "address"
        },
        {
          "internalType": "address",
          "name": "patient",
          "type": "address"
        }
      ],
      "name": "CompleteDonation",
      "outputs": [],
      "payable": false,
      "stateMutability": "nonpayable",
      "type": "function"
    },
    {
      "constant": false,
      "inputs": [
        {
          "internalType": "address",
          "name": "donor",
          "type": "address"
        }
      ],
      "name": "withdrawDonation",
      "outputs": [],
      "payable": false,
      "stateMutability": "nonpayable",
      "type": "function"
    },
    {
      "constant": true,
      "inputs": [
        {
          "internalType": "address",
          "name": "donor",
          "type": "address"
        }
      ],
      "name": "viewDonors",
      "outputs": [
        {
          "components": [
            {
              "internalType": "bytes32",
              "name": "name",
              "type": "bytes32"
            },
            {
              "internalType": "uint256",
              "name": "organ",
              "type": "uint256"
            },
            {
              "internalType": "uint256",
              "name": "blood_type",
              "type": "uint256"
            },
            {
              "internalType": "uint256",
              "name": "weight",
              "type": "uint256"
            }
          ],
          "internalType": "struct OrganDonation.OrganDonor",
          "name": "organDonor",
          "type": "tuple"
        }
      ],
      "payable": false,
      "stateMutability": "view",
      "type": "function"
    }
  ],
  "bytecode": "0x608060405234801561001057600080fd5b50610a54806100206000396000f3fe608060405234801561001057600080fd5b506004361061009e5760003560e01c80636fac81ed116100665780636fac81ed14610146578063b91ac78814610162578063bccfbfba14610193578063ca0cdea8146101c3578063cf7b3911146101f65761009e565b80630869cfbc146100a3578063209d318f146100d457806360fe47b1146100f05780636d4ce63c1461010c5780636db5e89b1461012a575b600080fd5b6100bd60048036036100b89190810190610693565b610214565b6040516100cb92919061093b565b60405180910390f35b6100ee60048036036100e991908101906106bc565b610258565b005b61010a600480360361010591908101906106f8565b610295565b005b61011461029f565b6040516101219190610920565b60405180910390f35b610144600480360361013f91908101906106bc565b6102a9565b005b610160600480360361015b9190810190610693565b6103ac565b005b61017c600480360361017791908101906106f8565b610411565b60405161018a929190610875565b60405180910390f35b6101ad60048036036101a89190810190610693565b610482565b6040516101ba9190610905565b60405180910390f35b6101dd60048036036101d89190810190610693565b610503565b6040516101ed94939291906108c0565b60405180910390f35b6101fe610533565b60405161020b919061089e565b60405180910390f35b60006020528060005260406000206000915090508060000154908060020160009054906101000a900473ffffffffffffffffffffffffffffffffffffffff16905082565b7f3979ad63ae0a9e53648b337251167be94d3031489458b23325ff04a8853416278282604051610289929190610875565b60405180910390a15050565b8060048190555050565b6000600454905090565b600260405180604001604052808473ffffffffffffffffffffffffffffffffffffffff1681526020018373ffffffffffffffffffffffffffffffffffffffff168152509080600181540180825580915050906001820390600052602060002090600202016000909192909190915060008201518160000160006101000a81548173ffffffffffffffffffffffffffffffffffffffff021916908373ffffffffffffffffffffffffffffffffffffffff16021790555060208201518160010160006101000a81548173ffffffffffffffffffffffffffffffffffffffff021916908373ffffffffffffffffffffffffffffffffffffffff1602179055505050505050565b600160008273ffffffffffffffffffffffffffffffffffffffff1673ffffffffffffffffffffffffffffffffffffffff168152602001908152602001600020600080820160009055600182016000905560028201600090556003820160009055505050565b6002818154811061041e57fe5b90600052602060002090600202016000915090508060000160009054906101000a900473ffffffffffffffffffffffffffffffffffffffff16908060010160009054906101000a900473ffffffffffffffffffffffffffffffffffffffff16905082565b61048a61063e565b600160008373ffffffffffffffffffffffffffffffffffffffff1673ffffffffffffffffffffffffffffffffffffffff1681526020019081526020016000206040518060800160405290816000820154815260200160018201548152602001600282015481526020016003820154815250509050919050565b60016020528060005260406000206000915090508060000154908060010154908060020154908060030154905084565b60606002805480602002602001604051908101604052809291908181526020016000905b8282101561063557838290600052602060002090600202016040518060400160405290816000820160009054906101000a900473ffffffffffffffffffffffffffffffffffffffff1673ffffffffffffffffffffffffffffffffffffffff1673ffffffffffffffffffffffffffffffffffffffff1681526020016001820160009054906101000a900473ffffffffffffffffffffffffffffffffffffffff1673ffffffffffffffffffffffffffffffffffffffff1673ffffffffffffffffffffffffffffffffffffffff168152505081526020019060010190610557565b50505050905090565b6040518060800160405280600080191681526020016000815260200160008152602001600081525090565b600081359050610678816109e3565b92915050565b60008135905061068d816109fa565b92915050565b6000602082840312156106a557600080fd5b60006106b384828501610669565b91505092915050565b600080604083850312156106cf57600080fd5b60006106dd85828601610669565b92505060206106ee85828601610669565b9150509250929050565b60006020828403121561070a57600080fd5b60006107188482850161067e565b91505092915050565b600061072d83836107d3565b60408301905092915050565b6107428161099d565b82525050565b6107518161099d565b82525050565b600061076282610974565b61076c818561098c565b935061077783610964565b8060005b838110156107a857815161078f8882610721565b975061079a8361097f565b92505060018101905061077b565b5085935050505092915050565b6107be816109af565b82525050565b6107cd816109af565b82525050565b6040820160008201516107e96000850182610739565b5060208201516107fc6020850182610739565b50505050565b60808201600082015161081860008501826107b5565b50602082015161082b6020850182610857565b50604082015161083e6040850182610857565b5060608201516108516060850182610857565b50505050565b610860816109d9565b82525050565b61086f816109d9565b82525050565b600060408201905061088a6000830185610748565b6108976020830184610748565b9392505050565b600060208201905081810360008301526108b88184610757565b905092915050565b60006080820190506108d560008301876107c4565b6108e26020830186610866565b6108ef6040830185610866565b6108fc6060830184610866565b95945050505050565b600060808201905061091a6000830184610802565b92915050565b60006020820190506109356000830184610866565b92915050565b60006040820190506109506000830185610866565b61095d6020830184610748565b9392505050565b6000819050602082019050919050565b600081519050919050565b6000602082019050919050565b600082825260208201905092915050565b60006109a8826109b9565b9050919050565b6000819050919050565b600073ffffffffffffffffffffffffffffffffffffffff82169050919050565b6000819050919050565b6109ec8161099d565b81146109f757600080fd5b50565b610a03816109d9565b8114610a0e57600080fd5b5056fea365627a7a723158200be78f79b24e78630e0e38d8901f23fa0ccc0af140df416550f5e8fb6c51a2dd6c6578706572696d656e74616cf564736f6c63430005100040",
  "source": "// SPDX-License-Identifier: MIT\r\npragma solidity ^0.5.16;\r\npragma experimental ABIEncoderV2;\r\n\r\ncontract OrganDonation{\r\n    // m stands for minux and p stands for plus\r\n    enum BloodType {\r\n        Om, Op, Bm, Bp, Am, Ap, ABm, ABp\r\n    }\r\n\r\n    enum Organ {\r\n        kidney, pancreas, intestine, liver, lung\r\n    }\r\n\r\n\r\n    struct OrganDonor {\r\n        // address donor;\r\n        // address patient;\r\n        bytes32 name;\r\n        uint organ;\r\n        uint blood_type;\r\n        uint weight;        \r\n    }\r\n\r\n    struct Patient {\r\n        uint weight;\r\n        BloodType[] blood_type;\r\n        address identity;\r\n    }\r\n\r\n    struct MatchedPair {\r\n        address donor;\r\n        address patient;\r\n    }\r\n\r\n    //set attributes\r\n    mapping( address => Patient ) public patients;\r\n    mapping( address => OrganDonor ) public donors;\r\n\r\n    MatchedPair[] public pairs;\r\n\r\n    // once someone has signed up for a donation, emit logDonor event with donor details\r\n    // add this donor to a list of available donors and match against a database(e.g. MongoDB) for a patient\r\n    // app will then emit a matchPairs event which will add to a list of paired Patients\r\n    event LogDonor(\r\n        address donor,\r\n        BloodType bloodType,\r\n        Organ organ\r\n    );\r\n\r\n    event LogPairs(\r\n        MatchedPair[] pairs\r\n    );\r\n\r\n    event completeMatch(\r\n        address donor,\r\n        address patient\r\n    );\r\n\r\n    // create a sign up form in the UI\r\n    // do form validation before sending this api call\r\n    uint hi; \r\n\r\n    uint storedData;\r\n\r\n    function set(uint x) public {\r\n        storedData = x;\r\n    }\r\n\r\n    function get() public returns(uint){\r\n        return storedData;\r\n    }\r\n    // function donateOrgan(bytes32 name, uint bloodType, uint organ, uint weight) public{\r\n    //     hi = bloodType;\r\n    //     donors[msg.sender] = OrganDonor(\r\n\r\n    // )\r\n    //     // donors[address(0)].name = name; \r\n    //     // donors[address(0)].organ = organ; \r\n    //     // donors[address(0)].blood_type = bloodType;\r\n    //     // donors[address(0)].weight = weight;\r\n\r\n    //     // emit LogDonor(msg.sender, bloodType, n);\r\n    // }\r\n\r\n    //after sending donor event to database\r\n    //once database found a pair, send an api call to match patient and add to list of pairs\r\n    function matchPairs(address donor, address patient) public {\r\n        // require(donor != patient, \"You cant have the same address for Donor and patient\");\r\n        // require(donor != address(0), \"Donor is not valid\");\r\n        // require(donors[donor].patient==address(0), \"Donor has already completed donation\");\r\n\r\n        pairs.push(\r\n            MatchedPair(\r\n                donor,\r\n                patient\r\n            )\r\n        );\r\n    }\r\n\r\n    //button in hospital UI to check current matched pairs\r\n    function viewPairs() public view returns(MatchedPair[] memory currentPairs){\r\n        currentPairs = pairs;\r\n    }\r\n\r\n    function CompleteDonation(address donor, address patient) public{\r\n        // require(donor != address(0));\r\n        // require(patient != address(0));\r\n        // donors[donor].patient = patient;\r\n        // remove matched pair\r\n        emit completeMatch(donor, patient);\r\n    }\r\n\r\n    function withdrawDonation(address donor) public{\r\n        // require(donor != address(0));\r\n        // require(donors[donor].patient == address(0));\r\n        delete donors[donor];\r\n    }\r\n\r\n    function viewDonors(address donor) public view returns(OrganDonor memory organDonor){\r\n        organDonor = donors[donor];\r\n    }\r\n\r\n    // todo: what about organs obtained from deceased patients? how do we account for that\r\n    // todo: change matched pairs from array to mappings\r\n    // todo: what to do if there is already a matched pair but donor withdraw\r\n\r\n\r\n    ///receive() external payable {\r\n\r\n    ///}\r\n}\r\n",
  "sourcePath": "C:\\Users\\Clarence\\Documents\\School\\competitions\\HackMIT\\hackMIT-donation-chain\\OrganChain\\contracts\\OrganDonation.sol",
  "compiler": {
    "name": "solc",
    "version": "0.5.16+commit.9c3226ce.Emscripten.clang"
  },
  "schemaVersion": "3.4.3",
  "updatedAt": "2021-09-19T13:05:38.451Z",
  "devdoc": {
    "methods": {}
  },
  "userdoc": {
    "methods": {}
  }
}